:1000000012C01FC01EC03AC01CC062C097C019C039
:1000100018C017C016C015C014C013C012C011C03C
:1000200010C00FC00EC011241FBECFEDCDBF20E009
:10003000A0E6B0E001C01D92A039B207E1F795D06B
:10004000BAC3DECF9C01C29890E137FF15C0C19AB8
:1000500083E08A95F1F70000C09A83E08A95F1F772
:100060000000C09883E08A95F1F70000220F331F4B
:10007000915059F7C29A0895C198EACF1F920F92F2
:100080000FB60F9211248F939F9382B780938000B5
:100090008091620090916300909382008093810030
:1000A00084B595B59093750080937400809160003D
:1000B00090916100909377008093760081E0809327
:1000C00084009F918F910F900FBE0F901F901895F5
:1000D0001F920F920FB60F9211248F939F938091CE
:1000E00060009091610001969093610080936000A0
:1000F00080918300882301F1809183008150809357
:10010000830080918E0090918F00892B49F080911F
:100110008E0090918F00019790938F0080938E00B6
:10012000809183008C3409F4C3989F918F910F9034
:100130000FBE0F901F901895959AE3CF1F920F92C4
:100140000FB60F9211248F939F938091620090912C
:100150006300019690936300809362009F918F915A
:100160000F900FBE0F901F90189581B781BF7894A4
:1001700080B7826080BF80B7816080BF83B7887F8F
:10018000836083BF789490E080E02CEC37E00196A8
:10019000853F01E0900709F0B5C181B3886281BB5A
:1001A00082B3806582BB87B3876087BBBB9AC29AE4
:1001B00010BE83B7876083BF89B7826089BF1FBCC9
:1001C0008EB581608EBD8EB580648EBD12BC89B740
:1001D000886889BF90E080E035DF80E09CE032DF16
:1001E00090E080E02FDF80E09FE02CDF81E09CE06A
:1001F00029DF8FEF99E026DF82E09AE023DF87E0B6
:100200009BE020DF10927C0010927D0010927E0017
:1002100010927F0010927000109271001092720084
:10022000109273001092860010928700109288003E
:100230001092890010928A0010928B0010928C000C
:1002400010928D0088E080938500109264001092D7
:10025000650010926600109267001092680010927C
:10026000690010926A0010926B0010928300109245
:1002700084008DEF92E090938F0080938E007894AD
:10028000959A93988CEC97E00197F1F7939AD8E9B7
:10029000C3E080918E0090918F00892B09F436C1C4
:1002A00080918400813009F0E0C0109284002DEF2D
:1002B00032E030938F0020938E00C39A939889EF99
:1002C00090E00197F1F700C000009598A9EFB0E029
:1002D0001197F1F700C00000939AD09383008091AA
:1002E00081009091820020918000B0E0A0E0BA2FC0
:1002F000A92F982F8827822B40917C0050917D0058
:1003000060917E0070917F002C013D01441A550AD6
:10031000660A770A409278005092790060927A00DB
:1003200070927B0080937C0090937D00A0937E0070
:10033000B0937F0020917600309177008091740017
:100340009091750050E040E0A90133272227B0E0EA
:10035000A0E0822B932BA42BB52B409170005091E1
:10036000710060917200709173008C019D01041BFB
:10037000150B260B370BB901A80140936C00509365
:100380006D0060936E0070936F0080937000909387
:100390007100A0937200B0937300452B462B472B3E
:1003A00061F481E090E0A0E0B0E080936C00909375
:1003B0006D00A0936E00B0936F009AE0491651044F
:1003C0006104710408F0C1C080E88093640086E98C
:1003D00080936500D09366001092670010926800C9
:1003E0001092690010926A0010926B00A8E0A0932E
:1003F000850080E8A82E96E9B92E28E9C22ED12CD6
:10040000E12CF12C00E010E02091640030916500B7
:10041000409166005091670060916800709169009A
:1004200080916A0090916B0059D1120151016301D2
:1004300055D140906C0050906D0060906E007090AF
:100440006F0012015101630179D12093860030932E
:100450008700409388005093890060938A007093CE
:100460008B0080938C0090938D00B0918600A091BA
:100470008700F0918800E091890060918A00709176
:100480008B002B2F3A2F4F2F5E2F80918C00909155
:100490008D002E3F304E454F554061057105810559
:1004A000910511F008F0F5CE809085005B2E6A2E44
:1004B0007F2ECE2F00E011E044244394652D762D4D
:1004C000872D9C2F2AE030E040E050E0E5D0CB01C2
:1004D0008410DFC098012068822B932BB3DD652D3B
:1004E000762D872D9C2F2AE030E040E050E0D4D0DC
:1004F000522E632E742EC52F4394139529E0421279
:10050000DDCFC6CEF9013197F1F741CE10928600CA
:1005100010928700109288001092890010928A0031
:1005200010928B0010928C0010928D0018E01093A6
:10053000850090E080E001968333910509F4B0CE08
:10054000ECECF7E03197F1F7F6CFB4E64B16510437
:1005500061047104B8F400E40093640012E41093A1
:1005600065002FE0209366001092670010926800EB
:100570001092690010926A0010926B0037E030937D
:10058000850037CF48EE441643E0540661047104F9
:10059000B8F480EA8093640096E890936500A1E047
:1005A000A093660010926700109268001092690094
:1005B00010926A0010926B00B6E0B093850019CFDC
:1005C00000E1401607E2500661047104A0F410E156
:1005D0001093640027E22093650010926600109249
:1005E0006700109268001092690010926A001092E1
:1005F0006B0035E0C4CF40EA441646E8540641E0BB
:1006000064067104A8F488EE80936400C0936500CA
:1006100010926600109267001092680010926900B4
:1006200010926A0010926B0094E090938500E1CEE6
:10063000A0E44A16A2E45A06AFE06A067104A0F4E8
:10064000B4E6B093640010926500109266001092B8
:100650006700109268001092690010926A00109270
:100660006B00C0938500C5CE0AE000936400109231
:100670006500109266001092670010926800109258
:10068000690010926A0010926B0012E010938500CE
:10069000B0CE802B912B22CFA1E21A2EAA1BBB1B1E
:1006A000FD010DC0AA1FBB1FEE1FFF1FA217B3073E
:1006B000E407F50720F0A21BB30BE40BF50B661F54
:1006C000771F881F991F1A9469F760957095809518
:1006D00090959B01AC01BD01CF010895DF93CF93AD
:1006E0009F92A0E49A2E0024D001E001F00116951B
:1006F0000795F794E794D794C794B794A79448F4D0
:100700001068A20FB31FC41FD51FE61FF71F081ED6
:10071000191E220F331F441F551F661F771F881F86
:10072000991F9A9421F79D01AE01BF01C0011124C8
:100730009F90CF91DF910895689401C0E8948F92C3
:100740009F92CF93DF9305D0DF91CF919F908F90B1
:10075000089588249924F401E401B0E41B2ED40107
:10076000220F331F441F551F661F771F881F991FB5
:10077000881C991CEE1FFF1FCC1FDD1FAA1FBB1F6B
:100780008A149B04EC05FD05CE05DF05A007B10723
:1007900048F08A189B08EC09FD09CE09DF09A00B77
:1007A000B10B21601A94E1F62EF49401AF01BE0161
:0A07B000CD01000C0895F894FFCF6E
:00000001FF
